Frame 1: 42 bytes on wire (336 bits), 42 bytes captured (336 bits) on interface R1_net1, id 0
    Interface id: 0 (R1_net1)
        Interface name: R1_net1
    Encapsulation type: Ethernet (1)
    Arrival Time: Dec  1, 2022 16:05:58.489483863 JST
    [Time shift for this packet: 0.000000000 seconds]
    Epoch Time: 1669878358.489483863 seconds
    [Time delta from previous captured frame: 0.000000000 seconds]
    [Time delta from previous displayed frame: 0.000000000 seconds]
    [Time since reference or first frame: 0.000000000 seconds]
    Frame Number: 1
    Frame Length: 42 bytes (336 bits)
    Capture Length: 42 bytes (336 bits)
    [Frame is marked: False]
    [Frame is ignored: False]
    [Protocols in frame: eth:ethertype:arp]
Ethernet II, Src: 0a:39:eb:00:19:db (0a:39:eb:00:19:db), Dst: b2:de:dd:81:29:4a (b2:de:dd:81:29:4a)
    Destination: b2:de:dd:81:29:4a (b2:de:dd:81:29:4a)
        Address: b2:de:dd:81:29:4a (b2:de:dd:81:29:4a)
        .... ..1. .... .... .... .... = LG bit: Locally administered address (this is NOT the factory default)
        .... ...0 .... .... .... .... = IG bit: Individual address (unicast)
    Source: 0a:39:eb:00:19:db (0a:39:eb:00:19:db)
        Address: 0a:39:eb:00:19:db (0a:39:eb:00:19:db)
        .... ..1. .... .... .... .... = LG bit: Locally administered address (this is NOT the factory default)
        .... ...0 .... .... .... .... = IG bit: Individual address (unicast)
    Type: ARP (0x0806)
Address Resolution Protocol (request)
    Hardware type: Ethernet (1)
    Protocol type: IPv4 (0x0800)
    Hardware size: 6
    Protocol size: 4
    Opcode: request (1)
    Sender MAC address: 0a:39:eb:00:19:db (0a:39:eb:00:19:db)
    Sender IP address: 10.255.3.1
    Target MAC address: 00:00:00_00:00:00 (00:00:00:00:00:00)
    Target IP address: 10.255.3.4

0000  b2 de dd 81 29 4a 0a 39 eb 00 19 db 08 06 00 01   ....)J.9........
0010  08 00 06 04 00 01 0a 39 eb 00 19 db 0a ff 03 01   .......9........
0020  00 00 00 00 00 00 0a ff 03 04                     ..........

Frame 2: 42 bytes on wire (336 bits), 42 bytes captured (336 bits) on interface R1_net1, id 0
    Interface id: 0 (R1_net1)
        Interface name: R1_net1
    Encapsulation type: Ethernet (1)
    Arrival Time: Dec  1, 2022 16:05:58.489525861 JST
    [Time shift for this packet: 0.000000000 seconds]
    Epoch Time: 1669878358.489525861 seconds
    [Time delta from previous captured frame: 0.000041998 seconds]
    [Time delta from previous displayed frame: 0.000041998 seconds]
    [Time since reference or first frame: 0.000041998 seconds]
    Frame Number: 2
    Frame Length: 42 bytes (336 bits)
    Capture Length: 42 bytes (336 bits)
    [Frame is marked: False]
    [Frame is ignored: False]
    [Protocols in frame: eth:ethertype:arp]
Ethernet II, Src: b2:de:dd:81:29:4a (b2:de:dd:81:29:4a), Dst: 0a:39:eb:00:19:db (0a:39:eb:00:19:db)
    Destination: 0a:39:eb:00:19:db (0a:39:eb:00:19:db)
        Address: 0a:39:eb:00:19:db (0a:39:eb:00:19:db)
        .... ..1. .... .... .... .... = LG bit: Locally administered address (this is NOT the factory default)
        .... ...0 .... .... .... .... = IG bit: Individual address (unicast)
    Source: b2:de:dd:81:29:4a (b2:de:dd:81:29:4a)
        Address: b2:de:dd:81:29:4a (b2:de:dd:81:29:4a)
        .... ..1. .... .... .... .... = LG bit: Locally administered address (this is NOT the factory default)
        .... ...0 .... .... .... .... = IG bit: Individual address (unicast)
    Type: ARP (0x0806)
Address Resolution Protocol (request)
    Hardware type: Ethernet (1)
    Protocol type: IPv4 (0x0800)
    Hardware size: 6
    Protocol size: 4
    Opcode: request (1)
    Sender MAC address: b2:de:dd:81:29:4a (b2:de:dd:81:29:4a)
    Sender IP address: 10.255.3.4
    Target MAC address: 00:00:00_00:00:00 (00:00:00:00:00:00)
    Target IP address: 10.255.3.1

0000  0a 39 eb 00 19 db b2 de dd 81 29 4a 08 06 00 01   .9........)J....
0010  08 00 06 04 00 01 b2 de dd 81 29 4a 0a ff 03 04   ..........)J....
0020  00 00 00 00 00 00 0a ff 03 01                     ..........

Frame 3: 42 bytes on wire (336 bits), 42 bytes captured (336 bits) on interface R1_net1, id 0
    Interface id: 0 (R1_net1)
        Interface name: R1_net1
    Encapsulation type: Ethernet (1)
    Arrival Time: Dec  1, 2022 16:05:58.489699519 JST
    [Time shift for this packet: 0.000000000 seconds]
    Epoch Time: 1669878358.489699519 seconds
    [Time delta from previous captured frame: 0.000173658 seconds]
    [Time delta from previous displayed frame: 0.000173658 seconds]
    [Time since reference or first frame: 0.000215656 seconds]
    Frame Number: 3
    Frame Length: 42 bytes (336 bits)
    Capture Length: 42 bytes (336 bits)
    [Frame is marked: False]
    [Frame is ignored: False]
    [Protocols in frame: eth:ethertype:arp]
Ethernet II, Src: 0a:39:eb:00:19:db (0a:39:eb:00:19:db), Dst: b2:de:dd:81:29:4a (b2:de:dd:81:29:4a)
    Destination: b2:de:dd:81:29:4a (b2:de:dd:81:29:4a)
        Address: b2:de:dd:81:29:4a (b2:de:dd:81:29:4a)
        .... ..1. .... .... .... .... = LG bit: Locally administered address (this is NOT the factory default)
        .... ...0 .... .... .... .... = IG bit: Individual address (unicast)
    Source: 0a:39:eb:00:19:db (0a:39:eb:00:19:db)
        Address: 0a:39:eb:00:19:db (0a:39:eb:00:19:db)
        .... ..1. .... .... .... .... = LG bit: Locally administered address (this is NOT the factory default)
        .... ...0 .... .... .... .... = IG bit: Individual address (unicast)
    Type: ARP (0x0806)
Address Resolution Protocol (reply)
    Hardware type: Ethernet (1)
    Protocol type: IPv4 (0x0800)
    Hardware size: 6
    Protocol size: 4
    Opcode: reply (2)
    Sender MAC address: 0a:39:eb:00:19:db (0a:39:eb:00:19:db)
    Sender IP address: 10.255.3.1
    Target MAC address: b2:de:dd:81:29:4a (b2:de:dd:81:29:4a)
    Target IP address: 10.255.3.4

0000  b2 de dd 81 29 4a 0a 39 eb 00 19 db 08 06 00 01   ....)J.9........
0010  08 00 06 04 00 02 0a 39 eb 00 19 db 0a ff 03 01   .......9........
0020  b2 de dd 81 29 4a 0a ff 03 04                     ....)J....

Frame 4: 42 bytes on wire (336 bits), 42 bytes captured (336 bits) on interface R1_net1, id 0
    Interface id: 0 (R1_net1)
        Interface name: R1_net1
    Encapsulation type: Ethernet (1)
    Arrival Time: Dec  1, 2022 16:05:58.489686811 JST
    [Time shift for this packet: 0.000000000 seconds]
    Epoch Time: 1669878358.489686811 seconds
    [Time delta from previous captured frame: -0.000012708 seconds]
    [Time delta from previous displayed frame: -0.000012708 seconds]
    [Time since reference or first frame: 0.000202948 seconds]
    Frame Number: 4
    Frame Length: 42 bytes (336 bits)
    Capture Length: 42 bytes (336 bits)
    [Frame is marked: False]
    [Frame is ignored: False]
    [Protocols in frame: eth:ethertype:arp]
Ethernet II, Src: b2:de:dd:81:29:4a (b2:de:dd:81:29:4a), Dst: 0a:39:eb:00:19:db (0a:39:eb:00:19:db)
    Destination: 0a:39:eb:00:19:db (0a:39:eb:00:19:db)
        Address: 0a:39:eb:00:19:db (0a:39:eb:00:19:db)
        .... ..1. .... .... .... .... = LG bit: Locally administered address (this is NOT the factory default)
        .... ...0 .... .... .... .... = IG bit: Individual address (unicast)
    Source: b2:de:dd:81:29:4a (b2:de:dd:81:29:4a)
        Address: b2:de:dd:81:29:4a (b2:de:dd:81:29:4a)
        .... ..1. .... .... .... .... = LG bit: Locally administered address (this is NOT the factory default)
        .... ...0 .... .... .... .... = IG bit: Individual address (unicast)
    Type: ARP (0x0806)
Address Resolution Protocol (reply)
    Hardware type: Ethernet (1)
    Protocol type: IPv4 (0x0800)
    Hardware size: 6
    Protocol size: 4
    Opcode: reply (2)
    Sender MAC address: b2:de:dd:81:29:4a (b2:de:dd:81:29:4a)
    Sender IP address: 10.255.3.4
    Target MAC address: 0a:39:eb:00:19:db (0a:39:eb:00:19:db)
    Target IP address: 10.255.3.1

0000  0a 39 eb 00 19 db b2 de dd 81 29 4a 08 06 00 01   .9........)J....
0010  08 00 06 04 00 02 b2 de dd 81 29 4a 0a ff 03 04   ..........)J....
0020  0a 39 eb 00 19 db 0a ff 03 01                     .9........

Frame 5: 74 bytes on wire (592 bits), 74 bytes captured (592 bits) on interface R1_net1, id 0
    Interface id: 0 (R1_net1)
        Interface name: R1_net1
    Encapsulation type: Ethernet (1)
    Arrival Time: Dec  1, 2022 16:05:59.728719075 JST
    [Time shift for this packet: 0.000000000 seconds]
    Epoch Time: 1669878359.728719075 seconds
    [Time delta from previous captured frame: 1.239032264 seconds]
    [Time delta from previous displayed frame: 1.239032264 seconds]
    [Time since reference or first frame: 1.239235212 seconds]
    Frame Number: 5
    Frame Length: 74 bytes (592 bits)
    Capture Length: 74 bytes (592 bits)
    [Frame is marked: False]
    [Frame is ignored: False]
    [Protocols in frame: eth:ethertype:ip:tcp]
Ethernet II, Src: 0a:39:eb:00:19:db (0a:39:eb:00:19:db), Dst: b2:de:dd:81:29:4a (b2:de:dd:81:29:4a)
    Destination: b2:de:dd:81:29:4a (b2:de:dd:81:29:4a)
        Address: b2:de:dd:81:29:4a (b2:de:dd:81:29:4a)
        .... ..1. .... .... .... .... = LG bit: Locally administered address (this is NOT the factory default)
        .... ...0 .... .... .... .... = IG bit: Individual address (unicast)
    Source: 0a:39:eb:00:19:db (0a:39:eb:00:19:db)
        Address: 0a:39:eb:00:19:db (0a:39:eb:00:19:db)
        .... ..1. .... .... .... .... = LG bit: Locally administered address (this is NOT the factory default)
        .... ...0 .... .... .... .... = IG bit: Individual address (unicast)
    Type: IPv4 (0x0800)
Internet Protocol Version 4, Src: 10.255.3.1, Dst: 10.255.3.4
    0100 .... = Version: 4
    .... 0101 = Header Length: 20 bytes (5)
    Differentiated Services Field: 0x00 (DSCP: CS0, ECN: Not-ECT)
        0000 00.. = Differentiated Services Codepoint: Default (0)
        .... ..00 = Explicit Congestion Notification: Not ECN-Capable Transport (0)
    Total Length: 60
    Identification: 0x1fa7 (8103)
    Flags: 0x40, Don't fragment
        0... .... = Reserved bit: Not set
        .1.. .... = Don't fragment: Set
        ..0. .... = More fragments: Not set
    ...0 0000 0000 0000 = Fragment Offset: 0
    Time to Live: 64
    Protocol: TCP (6)
    Header Checksum: 0xff12 [validation disabled]
    [Header checksum status: Unverified]
    Source Address: 10.255.3.1
    Destination Address: 10.255.3.4
Transmission Control Protocol, Src Port: 44966, Dst Port: 179, Seq: 0, Len: 0
    Source Port: 44966
    Destination Port: 179
    [Stream index: 0]
    [Conversation completeness: Incomplete (0)]
    [TCP Segment Len: 0]
    Sequence Number: 0    (relative sequence number)
    Sequence Number (raw): 3683336622
    [Next Sequence Number: 1    (relative sequence number)]
    Acknowledgment Number: 0
    Acknowledgment number (raw): 0
    1010 .... = Header Length: 40 bytes (10)
    Flags: 0x002 (SYN)
        000. .... .... = Reserved: Not set
        ...0 .... .... = Nonce: Not set
        .... 0... .... = Congestion Window Reduced (CWR): Not set
        .... .0.. .... = ECN-Echo: Not set
        .... ..0. .... = Urgent: Not set
        .... ...0 .... = Acknowledgment: Not set
        .... .... 0... = Push: Not set
        .... .... .0.. = Reset: Not set
        .... .... ..1. = Syn: Set
            [Expert Info (Chat/Sequence): Connection establish request (SYN): server port 179]
                [Connection establish request (SYN): server port 179]
                [Severity level: Chat]
                [Group: Sequence]
        .... .... ...0 = Fin: Not set
        [TCP Flags: ··········S·]
    Window: 64240
    [Calculated window size: 64240]
    Checksum: 0x1c31 [unverified]
    [Checksum Status: Unverified]
    Urgent Pointer: 0
    Options: (20 bytes), Maximum segment size, SACK permitted, Timestamps, No-Operation (NOP), Window scale
        TCP Option - Maximum segment size: 1460 bytes
            Kind: Maximum Segment Size (2)
            Length: 4
            MSS Value: 1460
        TCP Option - SACK permitted
            Kind: SACK Permitted (4)
            Length: 2
        TCP Option - Timestamps: TSval 3295125113, TSecr 0
            Kind: Time Stamp Option (8)
            Length: 10
            Timestamp value: 3295125113
            Timestamp echo reply: 0
        TCP Option - No-Operation (NOP)
            Kind: No-Operation (1)
        TCP Option - Window scale: 7 (multiply by 128)
            Kind: Window Scale (3)
            Length: 3
            Shift count: 7
            [Multiplier: 128]
    [Timestamps]
        [Time since first frame in this TCP stream: 0.000000000 seconds]
        [Time since previous frame in this TCP stream: 0.000000000 seconds]

0000  b2 de dd 81 29 4a 0a 39 eb 00 19 db 08 00 45 00   ....)J.9......E.
0010  00 3c 1f a7 40 00 40 06 ff 12 0a ff 03 01 0a ff   .<..@.@.........
0020  03 04 af a6 00 b3 db 8b 41 ae 00 00 00 00 a0 02   ........A.......
0030  fa f0 1c 31 00 00 02 04 05 b4 04 02 08 0a c4 67   ...1...........g
0040  9e 79 00 00 00 00 01 03 03 07                     .y........

Frame 6: 74 bytes on wire (592 bits), 74 bytes captured (592 bits) on interface R1_net1, id 0
    Interface id: 0 (R1_net1)
        Interface name: R1_net1
    Encapsulation type: Ethernet (1)
    Arrival Time: Dec  1, 2022 16:05:59.728853235 JST
    [Time shift for this packet: 0.000000000 seconds]
    Epoch Time: 1669878359.728853235 seconds
    [Time delta from previous captured frame: 0.000134160 seconds]
    [Time delta from previous displayed frame: 0.000134160 seconds]
    [Time since reference or first frame: 1.239369372 seconds]
    Frame Number: 6
    Frame Length: 74 bytes (592 bits)
    Capture Length: 74 bytes (592 bits)
    [Frame is marked: False]
    [Frame is ignored: False]
    [Protocols in frame: eth:ethertype:ip:tcp]
Ethernet II, Src: b2:de:dd:81:29:4a (b2:de:dd:81:29:4a), Dst: 0a:39:eb:00:19:db (0a:39:eb:00:19:db)
    Destination: 0a:39:eb:00:19:db (0a:39:eb:00:19:db)
        Address: 0a:39:eb:00:19:db (0a:39:eb:00:19:db)
        .... ..1. .... .... .... .... = LG bit: Locally administered address (this is NOT the factory default)
        .... ...0 .... .... .... .... = IG bit: Individual address (unicast)
    Source: b2:de:dd:81:29:4a (b2:de:dd:81:29:4a)
        Address: b2:de:dd:81:29:4a (b2:de:dd:81:29:4a)
        .... ..1. .... .... .... .... = LG bit: Locally administered address (this is NOT the factory default)
        .... ...0 .... .... .... .... = IG bit: Individual address (unicast)
    Type: IPv4 (0x0800)
Internet Protocol Version 4, Src: 10.255.3.4, Dst: 10.255.3.1
    0100 .... = Version: 4
    .... 0101 = Header Length: 20 bytes (5)
    Differentiated Services Field: 0x00 (DSCP: CS0, ECN: Not-ECT)
        0000 00.. = Differentiated Services Codepoint: Default (0)
        .... ..00 = Explicit Congestion Notification: Not ECN-Capable Transport (0)
    Total Length: 60
    Identification: 0x0000 (0)
    Flags: 0x40, Don't fragment
        0... .... = Reserved bit: Not set
        .1.. .... = Don't fragment: Set
        ..0. .... = More fragments: Not set
    ...0 0000 0000 0000 = Fragment Offset: 0
    Time to Live: 255
    Protocol: TCP (6)
    Header Checksum: 0x5fb9 [validation disabled]
    [Header checksum status: Unverified]
    Source Address: 10.255.3.4
    Destination Address: 10.255.3.1
Transmission Control Protocol, Src Port: 179, Dst Port: 44966, Seq: 0, Ack: 1, Len: 0
    Source Port: 179
    Destination Port: 44966
    [Stream index: 0]
    [Conversation completeness: Incomplete, SYN_SENT (1)]
    [TCP Segment Len: 0]
    Sequence Number: 0    (relative sequence number)
    Sequence Number (raw): 3929346322
    [Next Sequence Number: 1    (relative sequence number)]
    Acknowledgment Number: 1    (relative ack number)
    Acknowledgment number (raw): 3683336623
    1010 .... = Header Length: 40 bytes (10)
    Flags: 0x012 (SYN, ACK)
        000. .... .... = Reserved: Not set
        ...0 .... .... = Nonce: Not set
        .... 0... .... = Congestion Window Reduced (CWR): Not set
        .... .0.. .... = ECN-Echo: Not set
        .... ..0. .... = Urgent: Not set
        .... ...1 .... = Acknowledgment: Set
        .... .... 0... = Push: Not set
        .... .... .0.. = Reset: Not set
        .... .... ..1. = Syn: Set
            [Expert Info (Chat/Sequence): Connection establish acknowledge (SYN+ACK): server port 179]
                [Connection establish acknowledge (SYN+ACK): server port 179]
                [Severity level: Chat]
                [Group: Sequence]
        .... .... ...0 = Fin: Not set
        [TCP Flags: ·······A··S·]
    Window: 65160
    [Calculated window size: 65160]
    Checksum: 0x1c31 [unverified]
    [Checksum Status: Unverified]
    Urgent Pointer: 0
    Options: (20 bytes), Maximum segment size, SACK permitted, Timestamps, No-Operation (NOP), Window scale
        TCP Option - Maximum segment size: 1460 bytes
            Kind: Maximum Segment Size (2)
            Length: 4
            MSS Value: 1460
        TCP Option - SACK permitted
            Kind: SACK Permitted (4)
            Length: 2
        TCP Option - Timestamps: TSval 2983055941, TSecr 3295125113
            Kind: Time Stamp Option (8)
            Length: 10
            Timestamp value: 2983055941
            Timestamp echo reply: 3295125113
        TCP Option - No-Operation (NOP)
            Kind: No-Operation (1)
        TCP Option - Window scale: 7 (multiply by 128)
            Kind: Window Scale (3)
            Length: 3
            Shift count: 7
            [Multiplier: 128]
    [Timestamps]
        [Time since first frame in this TCP stream: 0.000134160 seconds]
        [Time since previous frame in this TCP stream: 0.000134160 seconds]
    [SEQ/ACK analysis]
        [This is an ACK to the segment in frame: 5]
        [The RTT to ACK the segment was: 0.000134160 seconds]

0000  0a 39 eb 00 19 db b2 de dd 81 29 4a 08 00 45 00   .9........)J..E.
0010  00 3c 00 00 40 00 ff 06 5f b9 0a ff 03 04 0a ff   .<..@..._.......
0020  03 01 00 b3 af a6 ea 35 11 12 db 8b 41 af a0 12   .......5....A...
0030  fe 88 1c 31 00 00 02 04 05 b4 04 02 08 0a b1 cd   ...1............
0040  d2 45 c4 67 9e 79 01 03 03 07                     .E.g.y....

Frame 7: 66 bytes on wire (528 bits), 66 bytes captured (528 bits) on interface R1_net1, id 0
    Interface id: 0 (R1_net1)
        Interface name: R1_net1
    Encapsulation type: Ethernet (1)
    Arrival Time: Dec  1, 2022 16:05:59.728876609 JST
    [Time shift for this packet: 0.000000000 seconds]
    Epoch Time: 1669878359.728876609 seconds
    [Time delta from previous captured frame: 0.000023374 seconds]
    [Time delta from previous displayed frame: 0.000023374 seconds]
    [Time since reference or first frame: 1.239392746 seconds]
    Frame Number: 7
    Frame Length: 66 bytes (528 bits)
    Capture Length: 66 bytes (528 bits)
    [Frame is marked: False]
    [Frame is ignored: False]
    [Protocols in frame: eth:ethertype:ip:tcp]
Ethernet II, Src: 0a:39:eb:00:19:db (0a:39:eb:00:19:db), Dst: b2:de:dd:81:29:4a (b2:de:dd:81:29:4a)
    Destination: b2:de:dd:81:29:4a (b2:de:dd:81:29:4a)
        Address: b2:de:dd:81:29:4a (b2:de:dd:81:29:4a)
        .... ..1. .... .... .... .... = LG bit: Locally administered address (this is NOT the factory default)
        .... ...0 .... .... .... .... = IG bit: Individual address (unicast)
    Source: 0a:39:eb:00:19:db (0a:39:eb:00:19:db)
        Address: 0a:39:eb:00:19:db (0a:39:eb:00:19:db)
        .... ..1. .... .... .... .... = LG bit: Locally administered address (this is NOT the factory default)
        .... ...0 .... .... .... .... = IG bit: Individual address (unicast)
    Type: IPv4 (0x0800)
Internet Protocol Version 4, Src: 10.255.3.1, Dst: 10.255.3.4
    0100 .... = Version: 4
    .... 0101 = Header Length: 20 bytes (5)
    Differentiated Services Field: 0x00 (DSCP: CS0, ECN: Not-ECT)
        0000 00.. = Differentiated Services Codepoint: Default (0)
        .... ..00 = Explicit Congestion Notification: Not ECN-Capable Transport (0)
    Total Length: 52
    Identification: 0x1fa8 (8104)
    Flags: 0x40, Don't fragment
        0... .... = Reserved bit: Not set
        .1.. .... = Don't fragment: Set
        ..0. .... = More fragments: Not set
    ...0 0000 0000 0000 = Fragment Offset: 0
    Time to Live: 64
    Protocol: TCP (6)
    Header Checksum: 0xff19 [validation disabled]
    [Header checksum status: Unverified]
    Source Address: 10.255.3.1
    Destination Address: 10.255.3.4
Transmission Control Protocol, Src Port: 44966, Dst Port: 179, Seq: 1, Ack: 1, Len: 0
    Source Port: 44966
    Destination Port: 179
    [Stream index: 0]
    [Conversation completeness: Incomplete, CLIENT_ESTABLISHED (3)]
    [TCP Segment Len: 0]
    Sequence Number: 1    (relative sequence number)
    Sequence Number (raw): 3683336623
    [Next Sequence Number: 1    (relative sequence number)]
    Acknowledgment Number: 1    (relative ack number)
    Acknowledgment number (raw): 3929346323
    1000 .... = Header Length: 32 bytes (8)
    Flags: 0x010 (ACK)
        000. .... .... = Reserved: Not set
        ...0 .... .... = Nonce: Not set
        .... 0... .... = Congestion Window Reduced (CWR): Not set
        .... .0.. .... = ECN-Echo: Not set
        .... ..0. .... = Urgent: Not set
        .... ...1 .... = Acknowledgment: Set
        .... .... 0... = Push: Not set
        .... .... .0.. = Reset: Not set
        .... .... ..0. = Syn: Not set
        .... .... ...0 = Fin: Not set
        [TCP Flags: ·······A····]
    Window: 502
    [Calculated window size: 64256]
    [Window size scaling factor: 128]
    Checksum: 0x1c29 [unverified]
    [Checksum Status: Unverified]
    Urgent Pointer: 0
    Options: (12 bytes), No-Operation (NOP), No-Operation (NOP), Timestamps
        TCP Option - No-Operation (NOP)
            Kind: No-Operation (1)
        TCP Option - No-Operation (NOP)
            Kind: No-Operation (1)
        TCP Option - Timestamps: TSval 3295125114, TSecr 2983055941
            Kind: Time Stamp Option (8)
            Length: 10
            Timestamp value: 3295125114
            Timestamp echo reply: 2983055941
    [Timestamps]
        [Time since first frame in this TCP stream: 0.000157534 seconds]
        [Time since previous frame in this TCP stream: 0.000023374 seconds]
    [SEQ/ACK analysis]
        [This is an ACK to the segment in frame: 6]
        [The RTT to ACK the segment was: 0.000023374 seconds]
        [iRTT: 0.000157534 seconds]

0000  b2 de dd 81 29 4a 0a 39 eb 00 19 db 08 00 45 00   ....)J.9......E.
0010  00 34 1f a8 40 00 40 06 ff 19 0a ff 03 01 0a ff   .4..@.@.........
0020  03 04 af a6 00 b3 db 8b 41 af ea 35 11 13 80 10   ........A..5....
0030  01 f6 1c 29 00 00 01 01 08 0a c4 67 9e 7a b1 cd   ...).......g.z..
0040  d2 45                                             .E

Frame 8: 93 bytes on wire (744 bits), 93 bytes captured (744 bits) on interface R1_net1, id 0
    Interface id: 0 (R1_net1)
        Interface name: R1_net1
    Encapsulation type: Ethernet (1)
    Arrival Time: Dec  1, 2022 16:05:59.729222466 JST
    [Time shift for this packet: 0.000000000 seconds]
    Epoch Time: 1669878359.729222466 seconds
    [Time delta from previous captured frame: 0.000345857 seconds]
    [Time delta from previous displayed frame: 0.000345857 seconds]
    [Time since reference or first frame: 1.239738603 seconds]
    Frame Number: 8
    Frame Length: 93 bytes (744 bits)
    Capture Length: 93 bytes (744 bits)
    [Frame is marked: False]
    [Frame is ignored: False]
    [Protocols in frame: eth:ethertype:ip:tcp]
Ethernet II, Src: 0a:39:eb:00:19:db (0a:39:eb:00:19:db), Dst: b2:de:dd:81:29:4a (b2:de:dd:81:29:4a)
    Destination: b2:de:dd:81:29:4a (b2:de:dd:81:29:4a)
        Address: b2:de:dd:81:29:4a (b2:de:dd:81:29:4a)
        .... ..1. .... .... .... .... = LG bit: Locally administered address (this is NOT the factory default)
        .... ...0 .... .... .... .... = IG bit: Individual address (unicast)
    Source: 0a:39:eb:00:19:db (0a:39:eb:00:19:db)
        Address: 0a:39:eb:00:19:db (0a:39:eb:00:19:db)
        .... ..1. .... .... .... .... = LG bit: Locally administered address (this is NOT the factory default)
        .... ...0 .... .... .... .... = IG bit: Individual address (unicast)
    Type: IPv4 (0x0800)
Internet Protocol Version 4, Src: 10.255.3.1, Dst: 10.255.3.4
    0100 .... = Version: 4
    .... 0101 = Header Length: 20 bytes (5)
    Differentiated Services Field: 0x00 (DSCP: CS0, ECN: Not-ECT)
        0000 00.. = Differentiated Services Codepoint: Default (0)
        .... ..00 = Explicit Congestion Notification: Not ECN-Capable Transport (0)
    Total Length: 79
    Identification: 0x1fa9 (8105)
    Flags: 0x40, Don't fragment
        0... .... = Reserved bit: Not set
        .1.. .... = Don't fragment: Set
        ..0. .... = More fragments: Not set
    ...0 0000 0000 0000 = Fragment Offset: 0
    Time to Live: 64
    Protocol: TCP (6)
    Header Checksum: 0xfefd [validation disabled]
    [Header checksum status: Unverified]
    Source Address: 10.255.3.1
    Destination Address: 10.255.3.4
Transmission Control Protocol, Src Port: 44966, Dst Port: 179, Seq: 1, Ack: 1, Len: 27
    Source Port: 44966
    Destination Port: 179
    [Stream index: 0]
    [Conversation completeness: Incomplete, ESTABLISHED (7)]
    [TCP Segment Len: 27]
    Sequence Number: 1    (relative sequence number)
    Sequence Number (raw): 3683336623
    [Next Sequence Number: 28    (relative sequence number)]
    Acknowledgment Number: 1    (relative ack number)
    Acknowledgment number (raw): 3929346323
    1000 .... = Header Length: 32 bytes (8)
    Flags: 0x018 (PSH, ACK)
        000. .... .... = Reserved: Not set
        ...0 .... .... = Nonce: Not set
        .... 0... .... = Congestion Window Reduced (CWR): Not set
        .... .0.. .... = ECN-Echo: Not set
        .... ..0. .... = Urgent: Not set
        .... ...1 .... = Acknowledgment: Set
        .... .... 1... = Push: Set
        .... .... .0.. = Reset: Not set
        .... .... ..0. = Syn: Not set
        .... .... ...0 = Fin: Not set
        [TCP Flags: ·······AP···]
    Window: 502
    [Calculated window size: 64256]
    [Window size scaling factor: 128]
    Checksum: 0x1c44 [unverified]
    [Checksum Status: Unverified]
    Urgent Pointer: 0
    Options: (12 bytes), No-Operation (NOP), No-Operation (NOP), Timestamps
        TCP Option - No-Operation (NOP)
            Kind: No-Operation (1)
        TCP Option - No-Operation (NOP)
            Kind: No-Operation (1)
        TCP Option - Timestamps: TSval 3295125114, TSecr 2983055941
            Kind: Time Stamp Option (8)
            Length: 10
            Timestamp value: 3295125114
            Timestamp echo reply: 2983055941
    [Timestamps]
        [Time since first frame in this TCP stream: 0.000503391 seconds]
        [Time since previous frame in this TCP stream: 0.000345857 seconds]
    [SEQ/ACK analysis]
        [iRTT: 0.000157534 seconds]
        [Bytes in flight: 27]
        [Bytes sent since last PSH flag: 27]
    TCP payload (27 bytes)
    TCP segment data (27 bytes)

0000  b2 de dd 81 29 4a 0a 39 eb 00 19 db 08 00 45 00   ....)J.9......E.
0010  00 4f 1f a9 40 00 40 06 fe fd 0a ff 03 01 0a ff   .O..@.@.........
0020  03 04 af a6 00 b3 db 8b 41 af ea 35 11 13 80 18   ........A..5....
0030  01 f6 1c 44 00 00 01 01 08 0a c4 67 9e 7a b1 cd   ...D.......g.z..
0040  d2 45 ff ff ff ff ff ff ff ff ff ff ff ff ff ff   .E..............
0050  ff ff 00 1e 01 04 fd e9 00 b4 0a ff 03            .............

Frame 9: 66 bytes on wire (528 bits), 66 bytes captured (528 bits) on interface R1_net1, id 0
    Interface id: 0 (R1_net1)
        Interface name: R1_net1
    Encapsulation type: Ethernet (1)
    Arrival Time: Dec  1, 2022 16:05:59.729232007 JST
    [Time shift for this packet: 0.000000000 seconds]
    Epoch Time: 1669878359.729232007 seconds
    [Time delta from previous captured frame: 0.000009541 seconds]
    [Time delta from previous displayed frame: 0.000009541 seconds]
    [Time since reference or first frame: 1.239748144 seconds]
    Frame Number: 9
    Frame Length: 66 bytes (528 bits)
    Capture Length: 66 bytes (528 bits)
    [Frame is marked: False]
    [Frame is ignored: False]
    [Protocols in frame: eth:ethertype:ip:tcp]
Ethernet II, Src: b2:de:dd:81:29:4a (b2:de:dd:81:29:4a), Dst: 0a:39:eb:00:19:db (0a:39:eb:00:19:db)
    Destination: 0a:39:eb:00:19:db (0a:39:eb:00:19:db)
        Address: 0a:39:eb:00:19:db (0a:39:eb:00:19:db)
        .... ..1. .... .... .... .... = LG bit: Locally administered address (this is NOT the factory default)
        .... ...0 .... .... .... .... = IG bit: Individual address (unicast)
    Source: b2:de:dd:81:29:4a (b2:de:dd:81:29:4a)
        Address: b2:de:dd:81:29:4a (b2:de:dd:81:29:4a)
        .... ..1. .... .... .... .... = LG bit: Locally administered address (this is NOT the factory default)
        .... ...0 .... .... .... .... = IG bit: Individual address (unicast)
    Type: IPv4 (0x0800)
Internet Protocol Version 4, Src: 10.255.3.4, Dst: 10.255.3.1
    0100 .... = Version: 4
    .... 0101 = Header Length: 20 bytes (5)
    Differentiated Services Field: 0x00 (DSCP: CS0, ECN: Not-ECT)
        0000 00.. = Differentiated Services Codepoint: Default (0)
        .... ..00 = Explicit Congestion Notification: Not ECN-Capable Transport (0)
    Total Length: 52
    Identification: 0xc612 (50706)
    Flags: 0x40, Don't fragment
        0... .... = Reserved bit: Not set
        .1.. .... = Don't fragment: Set
        ..0. .... = More fragments: Not set
    ...0 0000 0000 0000 = Fragment Offset: 0
    Time to Live: 255
    Protocol: TCP (6)
    Header Checksum: 0x99ae [validation disabled]
    [Header checksum status: Unverified]
    Source Address: 10.255.3.4
    Destination Address: 10.255.3.1
Transmission Control Protocol, Src Port: 179, Dst Port: 44966, Seq: 1, Ack: 28, Len: 0
    Source Port: 179
    Destination Port: 44966
    [Stream index: 0]
    [Conversation completeness: Incomplete, DATA (15)]
    [TCP Segment Len: 0]
    Sequence Number: 1    (relative sequence number)
    Sequence Number (raw): 3929346323
    [Next Sequence Number: 1    (relative sequence number)]
    Acknowledgment Number: 28    (relative ack number)
    Acknowledgment number (raw): 3683336650
    1000 .... = Header Length: 32 bytes (8)
    Flags: 0x010 (ACK)
        000. .... .... = Reserved: Not set
        ...0 .... .... = Nonce: Not set
        .... 0... .... = Congestion Window Reduced (CWR): Not set
        .... .0.. .... = ECN-Echo: Not set
        .... ..0. .... = Urgent: Not set
        .... ...1 .... = Acknowledgment: Set
        .... .... 0... = Push: Not set
        .... .... .0.. = Reset: Not set
        .... .... ..0. = Syn: Not set
        .... .... ...0 = Fin: Not set
        [TCP Flags: ·······A····]
    Window: 509
    [Calculated window size: 65152]
    [Window size scaling factor: 128]
    Checksum: 0x1c29 [unverified]
    [Checksum Status: Unverified]
    Urgent Pointer: 0
    Options: (12 bytes), No-Operation (NOP), No-Operation (NOP), Timestamps
        TCP Option - No-Operation (NOP)
            Kind: No-Operation (1)
        TCP Option - No-Operation (NOP)
            Kind: No-Operation (1)
        TCP Option - Timestamps: TSval 2983055941, TSecr 3295125114
            Kind: Time Stamp Option (8)
            Length: 10
            Timestamp value: 2983055941
            Timestamp echo reply: 3295125114
    [Timestamps]
        [Time since first frame in this TCP stream: 0.000512932 seconds]
        [Time since previous frame in this TCP stream: 0.000009541 seconds]
    [SEQ/ACK analysis]
        [This is an ACK to the segment in frame: 8]
        [The RTT to ACK the segment was: 0.000009541 seconds]
        [iRTT: 0.000157534 seconds]

0000  0a 39 eb 00 19 db b2 de dd 81 29 4a 08 00 45 00   .9........)J..E.
0010  00 34 c6 12 40 00 ff 06 99 ae 0a ff 03 04 0a ff   .4..@...........
0020  03 01 00 b3 af a6 ea 35 11 13 db 8b 41 ca 80 10   .......5....A...
0030  01 fd 1c 29 00 00 01 01 08 0a b1 cd d2 45 c4 67   ...).........E.g
0040  9e 7a                                             .z

Frame 10: 131 bytes on wire (1048 bits), 131 bytes captured (1048 bits) on interface R1_net1, id 0
    Interface id: 0 (R1_net1)
        Interface name: R1_net1
    Encapsulation type: Ethernet (1)
    Arrival Time: Dec  1, 2022 16:05:59.738019132 JST
    [Time shift for this packet: 0.000000000 seconds]
    Epoch Time: 1669878359.738019132 seconds
    [Time delta from previous captured frame: 0.008787125 seconds]
    [Time delta from previous displayed frame: 0.008787125 seconds]
    [Time since reference or first frame: 1.248535269 seconds]
    Frame Number: 10
    Frame Length: 131 bytes (1048 bits)
    Capture Length: 131 bytes (1048 bits)
    [Frame is marked: False]
    [Frame is ignored: False]
    [Protocols in frame: eth:ethertype:ip:tcp:bgp]
Ethernet II, Src: b2:de:dd:81:29:4a (b2:de:dd:81:29:4a), Dst: 0a:39:eb:00:19:db (0a:39:eb:00:19:db)
    Destination: 0a:39:eb:00:19:db (0a:39:eb:00:19:db)
        Address: 0a:39:eb:00:19:db (0a:39:eb:00:19:db)
        .... ..1. .... .... .... .... = LG bit: Locally administered address (this is NOT the factory default)
        .... ...0 .... .... .... .... = IG bit: Individual address (unicast)
    Source: b2:de:dd:81:29:4a (b2:de:dd:81:29:4a)
        Address: b2:de:dd:81:29:4a (b2:de:dd:81:29:4a)
        .... ..1. .... .... .... .... = LG bit: Locally administered address (this is NOT the factory default)
        .... ...0 .... .... .... .... = IG bit: Individual address (unicast)
    Type: IPv4 (0x0800)
Internet Protocol Version 4, Src: 10.255.3.4, Dst: 10.255.3.1
    0100 .... = Version: 4
    .... 0101 = Header Length: 20 bytes (5)
    Differentiated Services Field: 0x00 (DSCP: CS0, ECN: Not-ECT)
        0000 00.. = Differentiated Services Codepoint: Default (0)
        .... ..00 = Explicit Congestion Notification: Not ECN-Capable Transport (0)
    Total Length: 117
    Identification: 0xc613 (50707)
    Flags: 0x40, Don't fragment
        0... .... = Reserved bit: Not set
        .1.. .... = Don't fragment: Set
        ..0. .... = More fragments: Not set
    ...0 0000 0000 0000 = Fragment Offset: 0
    Time to Live: 1
        [Expert Info (Note/Sequence): "Time To Live" only 1]
            ["Time To Live" only 1]
            [Severity level: Note]
            [Group: Sequence]
    Protocol: TCP (6)
    Header Checksum: 0x976d [validation disabled]
    [Header checksum status: Unverified]
    Source Address: 10.255.3.4
    Destination Address: 10.255.3.1
Transmission Control Protocol, Src Port: 179, Dst Port: 44966, Seq: 1, Ack: 28, Len: 65
    Source Port: 179
    Destination Port: 44966
    [Stream index: 0]
    [Conversation completeness: Incomplete, DATA (15)]
    [TCP Segment Len: 65]
    Sequence Number: 1    (relative sequence number)
    Sequence Number (raw): 3929346323
    [Next Sequence Number: 66    (relative sequence number)]
    Acknowledgment Number: 28    (relative ack number)
    Acknowledgment number (raw): 3683336650
    1000 .... = Header Length: 32 bytes (8)
    Flags: 0x018 (PSH, ACK)
        000. .... .... = Reserved: Not set
        ...0 .... .... = Nonce: Not set
        .... 0... .... = Congestion Window Reduced (CWR): Not set
        .... .0.. .... = ECN-Echo: Not set
        .... ..0. .... = Urgent: Not set
        .... ...1 .... = Acknowledgment: Set
        .... .... 1... = Push: Set
        .... .... .0.. = Reset: Not set
        .... .... ..0. = Syn: Not set
        .... .... ...0 = Fin: Not set
        [TCP Flags: ·······AP···]
    Window: 509
    [Calculated window size: 65152]
    [Window size scaling factor: 128]
    Checksum: 0x1c6a [unverified]
    [Checksum Status: Unverified]
    Urgent Pointer: 0
    Options: (12 bytes), No-Operation (NOP), No-Operation (NOP), Timestamps
        TCP Option - No-Operation (NOP)
            Kind: No-Operation (1)
        TCP Option - No-Operation (NOP)
            Kind: No-Operation (1)
        TCP Option - Timestamps: TSval 2983055950, TSecr 3295125114
            Kind: Time Stamp Option (8)
            Length: 10
            Timestamp value: 2983055950
            Timestamp echo reply: 3295125114
    [Timestamps]
        [Time since first frame in this TCP stream: 0.009300057 seconds]
        [Time since previous frame in this TCP stream: 0.008787125 seconds]
    [SEQ/ACK analysis]
        [iRTT: 0.000157534 seconds]
        [Bytes in flight: 65]
        [Bytes sent since last PSH flag: 65]
    TCP payload (65 bytes)
Border Gateway Protocol - OPEN Message
    Marker: ffffffffffffffffffffffffffffffff
    Length: 65
    Type: OPEN Message (1)
    Version: 4
    My AS: 65000
    Hold Time: 90
    BGP Identifier: 10.255.3.4
    Optional Parameters Length: 36
    Optional Parameters
        Optional Parameter: Capability
            Parameter Type: Capability (2)
            Parameter Length: 34
            Capability: Route refresh capability
                Type: Route refresh capability (2)
                Length: 0
            Capability: FQDN Capability
                Type: FQDN Capability (73)
                Length: 10
                Hostname Length: 8
                Hostname: ubuntu10
                Domain Name Length: 0
                Domain Name: 
            Capability: Multiprotocol extensions capability
                Type: Multiprotocol extensions capability (1)
                Length: 4
                AFI: IPv4 (1)
                Reserved: 00
                SAFI: Unicast (1)
            Capability: Support for 4-octet AS number capability
                Type: Support for 4-octet AS number capability (65)
                Length: 4
                AS Number: 65000
            Capability: Extended Next Hop Encoding
                Type: Extended Next Hop Encoding (5)
                Length: 6
                AFI: IPv4 (1)
                SAFI: Unicast (1)
                Next hop AFI: IPv6 (2)

0000  0a 39 eb 00 19 db b2 de dd 81 29 4a 08 00 45 00   .9........)J..E.
0010  00 75 c6 13 40 00 01 06 97 6d 0a ff 03 04 0a ff   .u..@....m......
0020  03 01 00 b3 af a6 ea 35 11 13 db 8b 41 ca 80 18   .......5....A...
0030  01 fd 1c 6a 00 00 01 01 08 0a b1 cd d2 4e c4 67   ...j.........N.g
0040  9e 7a ff ff ff ff ff ff ff ff ff ff ff ff ff ff   .z..............
0050  ff ff 00 41 01 04 fd e8 00 5a 0a ff 03 04 24 02   ...A.....Z....$.
0060  22 02 00 49 0a 08 75 62 75 6e 74 75 31 30 00 01   "..I..ubuntu10..
0070  04 00 01 00 01 41 04 00 00 fd e8 05 06 00 01 00   .....A..........
0080  01 00 02                                          ...

Frame 11: 66 bytes on wire (528 bits), 66 bytes captured (528 bits) on interface R1_net1, id 0
    Interface id: 0 (R1_net1)
        Interface name: R1_net1
    Encapsulation type: Ethernet (1)
    Arrival Time: Dec  1, 2022 16:05:59.738053714 JST
    [Time shift for this packet: 0.000000000 seconds]
    Epoch Time: 1669878359.738053714 seconds
    [Time delta from previous captured frame: 0.000034582 seconds]
    [Time delta from previous displayed frame: 0.000034582 seconds]
    [Time since reference or first frame: 1.248569851 seconds]
    Frame Number: 11
    Frame Length: 66 bytes (528 bits)
    Capture Length: 66 bytes (528 bits)
    [Frame is marked: False]
    [Frame is ignored: False]
    [Protocols in frame: eth:ethertype:ip:tcp]
Ethernet II, Src: 0a:39:eb:00:19:db (0a:39:eb:00:19:db), Dst: b2:de:dd:81:29:4a (b2:de:dd:81:29:4a)
    Destination: b2:de:dd:81:29:4a (b2:de:dd:81:29:4a)
        Address: b2:de:dd:81:29:4a (b2:de:dd:81:29:4a)
        .... ..1. .... .... .... .... = LG bit: Locally administered address (this is NOT the factory default)
        .... ...0 .... .... .... .... = IG bit: Individual address (unicast)
    Source: 0a:39:eb:00:19:db (0a:39:eb:00:19:db)
        Address: 0a:39:eb:00:19:db (0a:39:eb:00:19:db)
        .... ..1. .... .... .... .... = LG bit: Locally administered address (this is NOT the factory default)
        .... ...0 .... .... .... .... = IG bit: Individual address (unicast)
    Type: IPv4 (0x0800)
Internet Protocol Version 4, Src: 10.255.3.1, Dst: 10.255.3.4
    0100 .... = Version: 4
    .... 0101 = Header Length: 20 bytes (5)
    Differentiated Services Field: 0x00 (DSCP: CS0, ECN: Not-ECT)
        0000 00.. = Differentiated Services Codepoint: Default (0)
        .... ..00 = Explicit Congestion Notification: Not ECN-Capable Transport (0)
    Total Length: 52
    Identification: 0x1faa (8106)
    Flags: 0x40, Don't fragment
        0... .... = Reserved bit: Not set
        .1.. .... = Don't fragment: Set
        ..0. .... = More fragments: Not set
    ...0 0000 0000 0000 = Fragment Offset: 0
    Time to Live: 64
    Protocol: TCP (6)
    Header Checksum: 0xff17 [validation disabled]
    [Header checksum status: Unverified]
    Source Address: 10.255.3.1
    Destination Address: 10.255.3.4
Transmission Control Protocol, Src Port: 44966, Dst Port: 179, Seq: 28, Ack: 66, Len: 0
    Source Port: 44966
    Destination Port: 179
    [Stream index: 0]
    [Conversation completeness: Incomplete, DATA (15)]
    [TCP Segment Len: 0]
    Sequence Number: 28    (relative sequence number)
    Sequence Number (raw): 3683336650
    [Next Sequence Number: 28    (relative sequence number)]
    Acknowledgment Number: 66    (relative ack number)
    Acknowledgment number (raw): 3929346388
    1000 .... = Header Length: 32 bytes (8)
    Flags: 0x010 (ACK)
        000. .... .... = Reserved: Not set
        ...0 .... .... = Nonce: Not set
        .... 0... .... = Congestion Window Reduced (CWR): Not set
        .... .0.. .... = ECN-Echo: Not set
        .... ..0. .... = Urgent: Not set
        .... ...1 .... = Acknowledgment: Set
        .... .... 0... = Push: Not set
        .... .... .0.. = Reset: Not set
        .... .... ..0. = Syn: Not set
        .... .... ...0 = Fin: Not set
        [TCP Flags: ·······A····]
    Window: 502
    [Calculated window size: 64256]
    [Window size scaling factor: 128]
    Checksum: 0x1c29 [unverified]
    [Checksum Status: Unverified]
    Urgent Pointer: 0
    Options: (12 bytes), No-Operation (NOP), No-Operation (NOP), Timestamps
        TCP Option - No-Operation (NOP)
            Kind: No-Operation (1)
        TCP Option - No-Operation (NOP)
            Kind: No-Operation (1)
        TCP Option - Timestamps: TSval 3295125123, TSecr 2983055950
            Kind: Time Stamp Option (8)
            Length: 10
            Timestamp value: 3295125123
            Timestamp echo reply: 2983055950
    [Timestamps]
        [Time since first frame in this TCP stream: 0.009334639 seconds]
        [Time since previous frame in this TCP stream: 0.000034582 seconds]
    [SEQ/ACK analysis]
        [This is an ACK to the segment in frame: 10]
        [The RTT to ACK the segment was: 0.000034582 seconds]
        [iRTT: 0.000157534 seconds]

0000  b2 de dd 81 29 4a 0a 39 eb 00 19 db 08 00 45 00   ....)J.9......E.
0010  00 34 1f aa 40 00 40 06 ff 17 0a ff 03 01 0a ff   .4..@.@.........
0020  03 04 af a6 00 b3 db 8b 41 ca ea 35 11 54 80 10   ........A..5.T..
0030  01 f6 1c 29 00 00 01 01 08 0a c4 67 9e 83 b1 cd   ...).......g....
0040  d2 4e                                             .N

Frame 12: 66 bytes on wire (528 bits), 66 bytes captured (528 bits) on interface R1_net1, id 0
    Interface id: 0 (R1_net1)
        Interface name: R1_net1
    Encapsulation type: Ethernet (1)
    Arrival Time: Dec  1, 2022 16:06:14.873073109 JST
    [Time shift for this packet: 0.000000000 seconds]
    Epoch Time: 1669878374.873073109 seconds
    [Time delta from previous captured frame: 15.135019395 seconds]
    [Time delta from previous displayed frame: 15.135019395 seconds]
    [Time since reference or first frame: 16.383589246 seconds]
    Frame Number: 12
    Frame Length: 66 bytes (528 bits)
    Capture Length: 66 bytes (528 bits)
    [Frame is marked: False]
    [Frame is ignored: False]
    [Protocols in frame: eth:ethertype:ip:tcp]
Ethernet II, Src: b2:de:dd:81:29:4a (b2:de:dd:81:29:4a), Dst: 0a:39:eb:00:19:db (0a:39:eb:00:19:db)
    Destination: 0a:39:eb:00:19:db (0a:39:eb:00:19:db)
        Address: 0a:39:eb:00:19:db (0a:39:eb:00:19:db)
        .... ..1. .... .... .... .... = LG bit: Locally administered address (this is NOT the factory default)
        .... ...0 .... .... .... .... = IG bit: Individual address (unicast)
    Source: b2:de:dd:81:29:4a (b2:de:dd:81:29:4a)
        Address: b2:de:dd:81:29:4a (b2:de:dd:81:29:4a)
        .... ..1. .... .... .... .... = LG bit: Locally administered address (this is NOT the factory default)
        .... ...0 .... .... .... .... = IG bit: Individual address (unicast)
    Type: IPv4 (0x0800)
Internet Protocol Version 4, Src: 10.255.3.4, Dst: 10.255.3.1
    0100 .... = Version: 4
    .... 0101 = Header Length: 20 bytes (5)
    Differentiated Services Field: 0x00 (DSCP: CS0, ECN: Not-ECT)
        0000 00.. = Differentiated Services Codepoint: Default (0)
        .... ..00 = Explicit Congestion Notification: Not ECN-Capable Transport (0)
    Total Length: 52
    Identification: 0xc614 (50708)
    Flags: 0x40, Don't fragment
        0... .... = Reserved bit: Not set
        .1.. .... = Don't fragment: Set
        ..0. .... = More fragments: Not set
    ...0 0000 0000 0000 = Fragment Offset: 0
    Time to Live: 1
        [Expert Info (Note/Sequence): "Time To Live" only 1]
            ["Time To Live" only 1]
            [Severity level: Note]
            [Group: Sequence]
    Protocol: TCP (6)
    Header Checksum: 0x97ad [validation disabled]
    [Header checksum status: Unverified]
    Source Address: 10.255.3.4
    Destination Address: 10.255.3.1
Transmission Control Protocol, Src Port: 179, Dst Port: 44966, Seq: 65, Ack: 28, Len: 0
    Source Port: 179
    Destination Port: 44966
    [Stream index: 0]
    [Conversation completeness: Incomplete, DATA (15)]
    [TCP Segment Len: 0]
    Sequence Number: 65    (relative sequence number)
    Sequence Number (raw): 3929346387
    [Next Sequence Number: 65    (relative sequence number)]
    Acknowledgment Number: 28    (relative ack number)
    Acknowledgment number (raw): 3683336650
    1000 .... = Header Length: 32 bytes (8)
    Flags: 0x010 (ACK)
        000. .... .... = Reserved: Not set
        ...0 .... .... = Nonce: Not set
        .... 0... .... = Congestion Window Reduced (CWR): Not set
        .... .0.. .... = ECN-Echo: Not set
        .... ..0. .... = Urgent: Not set
        .... ...1 .... = Acknowledgment: Set
        .... .... 0... = Push: Not set
        .... .... .0.. = Reset: Not set
        .... .... ..0. = Syn: Not set
        .... .... ...0 = Fin: Not set
        [TCP Flags: ·······A····]
    Window: 509
    [Calculated window size: 65152]
    [Window size scaling factor: 128]
    Checksum: 0x1c29 [unverified]
    [Checksum Status: Unverified]
    Urgent Pointer: 0
    Options: (12 bytes), No-Operation (NOP), No-Operation (NOP), Timestamps
        TCP Option - No-Operation (NOP)
            Kind: No-Operation (1)
        TCP Option - No-Operation (NOP)
            Kind: No-Operation (1)
        TCP Option - Timestamps: TSval 2983071085, TSecr 3295125123
            Kind: Time Stamp Option (8)
            Length: 10
            Timestamp value: 2983071085
            Timestamp echo reply: 3295125123
    [Timestamps]
        [Time since first frame in this TCP stream: 15.144354034 seconds]
        [Time since previous frame in this TCP stream: 15.135019395 seconds]
    [SEQ/ACK analysis]
        [iRTT: 0.000157534 seconds]
        [TCP Analysis Flags]
            [Expert Info (Note/Sequence): TCP keep-alive segment]
                [TCP keep-alive segment]
                [Severity level: Note]
                [Group: Sequence]

0000  0a 39 eb 00 19 db b2 de dd 81 29 4a 08 00 45 00   .9........)J..E.
0010  00 34 c6 14 40 00 01 06 97 ad 0a ff 03 04 0a ff   .4..@...........
0020  03 01 00 b3 af a6 ea 35 11 53 db 8b 41 ca 80 10   .......5.S..A...
0030  01 fd 1c 29 00 00 01 01 08 0a b1 ce 0d 6d c4 67   ...).........m.g
0040  9e 83                                             ..

Frame 13: 66 bytes on wire (528 bits), 66 bytes captured (528 bits) on interface R1_net1, id 0
    Interface id: 0 (R1_net1)
        Interface name: R1_net1
    Encapsulation type: Ethernet (1)
    Arrival Time: Dec  1, 2022 16:06:14.873357969 JST
    [Time shift for this packet: 0.000000000 seconds]
    Epoch Time: 1669878374.873357969 seconds
    [Time delta from previous captured frame: 0.000284860 seconds]
    [Time delta from previous displayed frame: 0.000284860 seconds]
    [Time since reference or first frame: 16.383874106 seconds]
    Frame Number: 13
    Frame Length: 66 bytes (528 bits)
    Capture Length: 66 bytes (528 bits)
    [Frame is marked: False]
    [Frame is ignored: False]
    [Protocols in frame: eth:ethertype:ip:tcp]
Ethernet II, Src: 0a:39:eb:00:19:db (0a:39:eb:00:19:db), Dst: b2:de:dd:81:29:4a (b2:de:dd:81:29:4a)
    Destination: b2:de:dd:81:29:4a (b2:de:dd:81:29:4a)
        Address: b2:de:dd:81:29:4a (b2:de:dd:81:29:4a)
        .... ..1. .... .... .... .... = LG bit: Locally administered address (this is NOT the factory default)
        .... ...0 .... .... .... .... = IG bit: Individual address (unicast)
    Source: 0a:39:eb:00:19:db (0a:39:eb:00:19:db)
        Address: 0a:39:eb:00:19:db (0a:39:eb:00:19:db)
        .... ..1. .... .... .... .... = LG bit: Locally administered address (this is NOT the factory default)
        .... ...0 .... .... .... .... = IG bit: Individual address (unicast)
    Type: IPv4 (0x0800)
Internet Protocol Version 4, Src: 10.255.3.1, Dst: 10.255.3.4
    0100 .... = Version: 4
    .... 0101 = Header Length: 20 bytes (5)
    Differentiated Services Field: 0x00 (DSCP: CS0, ECN: Not-ECT)
        0000 00.. = Differentiated Services Codepoint: Default (0)
        .... ..00 = Explicit Congestion Notification: Not ECN-Capable Transport (0)
    Total Length: 52
    Identification: 0x1fab (8107)
    Flags: 0x40, Don't fragment
        0... .... = Reserved bit: Not set
        .1.. .... = Don't fragment: Set
        ..0. .... = More fragments: Not set
    ...0 0000 0000 0000 = Fragment Offset: 0
    Time to Live: 64
    Protocol: TCP (6)
    Header Checksum: 0xff16 [validation disabled]
    [Header checksum status: Unverified]
    Source Address: 10.255.3.1
    Destination Address: 10.255.3.4
Transmission Control Protocol, Src Port: 44966, Dst Port: 179, Seq: 28, Ack: 66, Len: 0
    Source Port: 44966
    Destination Port: 179
    [Stream index: 0]
    [Conversation completeness: Incomplete, DATA (15)]
    [TCP Segment Len: 0]
    Sequence Number: 28    (relative sequence number)
    Sequence Number (raw): 3683336650
    [Next Sequence Number: 28    (relative sequence number)]
    Acknowledgment Number: 66    (relative ack number)
    Acknowledgment number (raw): 3929346388
    1000 .... = Header Length: 32 bytes (8)
    Flags: 0x010 (ACK)
        000. .... .... = Reserved: Not set
        ...0 .... .... = Nonce: Not set
        .... 0... .... = Congestion Window Reduced (CWR): Not set
        .... .0.. .... = ECN-Echo: Not set
        .... ..0. .... = Urgent: Not set
        .... ...1 .... = Acknowledgment: Set
        .... .... 0... = Push: Not set
        .... .... .0.. = Reset: Not set
        .... .... ..0. = Syn: Not set
        .... .... ...0 = Fin: Not set
        [TCP Flags: ·······A····]
    Window: 502
    [Calculated window size: 64256]
    [Window size scaling factor: 128]
    Checksum: 0x1c29 [unverified]
    [Checksum Status: Unverified]
    Urgent Pointer: 0
    Options: (12 bytes), No-Operation (NOP), No-Operation (NOP), Timestamps
        TCP Option - No-Operation (NOP)
            Kind: No-Operation (1)
        TCP Option - No-Operation (NOP)
            Kind: No-Operation (1)
        TCP Option - Timestamps: TSval 3295140258, TSecr 2983055950
            Kind: Time Stamp Option (8)
            Length: 10
            Timestamp value: 3295140258
            Timestamp echo reply: 2983055950
    [Timestamps]
        [Time since first frame in this TCP stream: 15.144638894 seconds]
        [Time since previous frame in this TCP stream: 0.000284860 seconds]
    [SEQ/ACK analysis]
        [iRTT: 0.000157534 seconds]
        [TCP Analysis Flags]
            [Expert Info (Note/Sequence): ACK to a TCP keep-alive segment]
                [ACK to a TCP keep-alive segment]
                [Severity level: Note]
                [Group: Sequence]

0000  b2 de dd 81 29 4a 0a 39 eb 00 19 db 08 00 45 00   ....)J.9......E.
0010  00 34 1f ab 40 00 40 06 ff 16 0a ff 03 01 0a ff   .4..@.@.........
0020  03 04 af a6 00 b3 db 8b 41 ca ea 35 11 54 80 10   ........A..5.T..
0030  01 f6 1c 29 00 00 01 01 08 0a c4 67 d9 a2 b1 cd   ...).......g....
0040  d2 4e                                             .N

Frame 14: 66 bytes on wire (528 bits), 66 bytes captured (528 bits) on interface R1_net1, id 0
    Interface id: 0 (R1_net1)
        Interface name: R1_net1
    Encapsulation type: Ethernet (1)
    Arrival Time: Dec  1, 2022 16:06:29.921829352 JST
    [Time shift for this packet: 0.000000000 seconds]
    Epoch Time: 1669878389.921829352 seconds
    [Time delta from previous captured frame: 15.048471383 seconds]
    [Time delta from previous displayed frame: 15.048471383 seconds]
    [Time since reference or first frame: 31.432345489 seconds]
    Frame Number: 14
    Frame Length: 66 bytes (528 bits)
    Capture Length: 66 bytes (528 bits)
    [Frame is marked: False]
    [Frame is ignored: False]
    [Protocols in frame: eth:ethertype:ip:tcp]
Ethernet II, Src: b2:de:dd:81:29:4a (b2:de:dd:81:29:4a), Dst: 0a:39:eb:00:19:db (0a:39:eb:00:19:db)
    Destination: 0a:39:eb:00:19:db (0a:39:eb:00:19:db)
        Address: 0a:39:eb:00:19:db (0a:39:eb:00:19:db)
        .... ..1. .... .... .... .... = LG bit: Locally administered address (this is NOT the factory default)
        .... ...0 .... .... .... .... = IG bit: Individual address (unicast)
    Source: b2:de:dd:81:29:4a (b2:de:dd:81:29:4a)
        Address: b2:de:dd:81:29:4a (b2:de:dd:81:29:4a)
        .... ..1. .... .... .... .... = LG bit: Locally administered address (this is NOT the factory default)
        .... ...0 .... .... .... .... = IG bit: Individual address (unicast)
    Type: IPv4 (0x0800)
Internet Protocol Version 4, Src: 10.255.3.4, Dst: 10.255.3.1
    0100 .... = Version: 4
    .... 0101 = Header Length: 20 bytes (5)
    Differentiated Services Field: 0x00 (DSCP: CS0, ECN: Not-ECT)
        0000 00.. = Differentiated Services Codepoint: Default (0)
        .... ..00 = Explicit Congestion Notification: Not ECN-Capable Transport (0)
    Total Length: 52
    Identification: 0xc615 (50709)
    Flags: 0x40, Don't fragment
        0... .... = Reserved bit: Not set
        .1.. .... = Don't fragment: Set
        ..0. .... = More fragments: Not set
    ...0 0000 0000 0000 = Fragment Offset: 0
    Time to Live: 1
        [Expert Info (Note/Sequence): "Time To Live" only 1]
            ["Time To Live" only 1]
            [Severity level: Note]
            [Group: Sequence]
    Protocol: TCP (6)
    Header Checksum: 0x97ac [validation disabled]
    [Header checksum status: Unverified]
    Source Address: 10.255.3.4
    Destination Address: 10.255.3.1
Transmission Control Protocol, Src Port: 179, Dst Port: 44966, Seq: 65, Ack: 28, Len: 0
    Source Port: 179
    Destination Port: 44966
    [Stream index: 0]
    [Conversation completeness: Incomplete, DATA (15)]
    [TCP Segment Len: 0]
    Sequence Number: 65    (relative sequence number)
    Sequence Number (raw): 3929346387
    [Next Sequence Number: 65    (relative sequence number)]
    Acknowledgment Number: 28    (relative ack number)
    Acknowledgment number (raw): 3683336650
    1000 .... = Header Length: 32 bytes (8)
    Flags: 0x010 (ACK)
        000. .... .... = Reserved: Not set
        ...0 .... .... = Nonce: Not set
        .... 0... .... = Congestion Window Reduced (CWR): Not set
        .... .0.. .... = ECN-Echo: Not set
        .... ..0. .... = Urgent: Not set
        .... ...1 .... = Acknowledgment: Set
        .... .... 0... = Push: Not set
        .... .... .0.. = Reset: Not set
        .... .... ..0. = Syn: Not set
        .... .... ...0 = Fin: Not set
        [TCP Flags: ·······A····]
    Window: 509
    [Calculated window size: 65152]
    [Window size scaling factor: 128]
    Checksum: 0x1c29 [unverified]
    [Checksum Status: Unverified]
    Urgent Pointer: 0
    Options: (12 bytes), No-Operation (NOP), No-Operation (NOP), Timestamps
        TCP Option - No-Operation (NOP)
            Kind: No-Operation (1)
        TCP Option - No-Operation (NOP)
            Kind: No-Operation (1)
        TCP Option - Timestamps: TSval 2983086134, TSecr 3295140258
            Kind: Time Stamp Option (8)
            Length: 10
            Timestamp value: 2983086134
            Timestamp echo reply: 3295140258
    [Timestamps]
        [Time since first frame in this TCP stream: 30.193110277 seconds]
        [Time since previous frame in this TCP stream: 15.048471383 seconds]
    [SEQ/ACK analysis]
        [iRTT: 0.000157534 seconds]
        [TCP Analysis Flags]
            [Expert Info (Note/Sequence): TCP keep-alive segment]
                [TCP keep-alive segment]
                [Severity level: Note]
                [Group: Sequence]

0000  0a 39 eb 00 19 db b2 de dd 81 29 4a 08 00 45 00   .9........)J..E.
0010  00 34 c6 15 40 00 01 06 97 ac 0a ff 03 04 0a ff   .4..@...........
0020  03 01 00 b3 af a6 ea 35 11 53 db 8b 41 ca 80 10   .......5.S..A...
0030  01 fd 1c 29 00 00 01 01 08 0a b1 ce 48 36 c4 67   ...)........H6.g
0040  d9 a2                                             ..

Frame 15: 66 bytes on wire (528 bits), 66 bytes captured (528 bits) on interface R1_net1, id 0
    Interface id: 0 (R1_net1)
        Interface name: R1_net1
    Encapsulation type: Ethernet (1)
    Arrival Time: Dec  1, 2022 16:06:29.921983886 JST
    [Time shift for this packet: 0.000000000 seconds]
    Epoch Time: 1669878389.921983886 seconds
    [Time delta from previous captured frame: 0.000154534 seconds]
    [Time delta from previous displayed frame: 0.000154534 seconds]
    [Time since reference or first frame: 31.432500023 seconds]
    Frame Number: 15
    Frame Length: 66 bytes (528 bits)
    Capture Length: 66 bytes (528 bits)
    [Frame is marked: False]
    [Frame is ignored: False]
    [Protocols in frame: eth:ethertype:ip:tcp]
Ethernet II, Src: 0a:39:eb:00:19:db (0a:39:eb:00:19:db), Dst: b2:de:dd:81:29:4a (b2:de:dd:81:29:4a)
    Destination: b2:de:dd:81:29:4a (b2:de:dd:81:29:4a)
        Address: b2:de:dd:81:29:4a (b2:de:dd:81:29:4a)
        .... ..1. .... .... .... .... = LG bit: Locally administered address (this is NOT the factory default)
        .... ...0 .... .... .... .... = IG bit: Individual address (unicast)
    Source: 0a:39:eb:00:19:db (0a:39:eb:00:19:db)
        Address: 0a:39:eb:00:19:db (0a:39:eb:00:19:db)
        .... ..1. .... .... .... .... = LG bit: Locally administered address (this is NOT the factory default)
        .... ...0 .... .... .... .... = IG bit: Individual address (unicast)
    Type: IPv4 (0x0800)
Internet Protocol Version 4, Src: 10.255.3.1, Dst: 10.255.3.4
    0100 .... = Version: 4
    .... 0101 = Header Length: 20 bytes (5)
    Differentiated Services Field: 0x00 (DSCP: CS0, ECN: Not-ECT)
        0000 00.. = Differentiated Services Codepoint: Default (0)
        .... ..00 = Explicit Congestion Notification: Not ECN-Capable Transport (0)
    Total Length: 52
    Identification: 0x1fac (8108)
    Flags: 0x40, Don't fragment
        0... .... = Reserved bit: Not set
        .1.. .... = Don't fragment: Set
        ..0. .... = More fragments: Not set
    ...0 0000 0000 0000 = Fragment Offset: 0
    Time to Live: 64
    Protocol: TCP (6)
    Header Checksum: 0xff15 [validation disabled]
    [Header checksum status: Unverified]
    Source Address: 10.255.3.1
    Destination Address: 10.255.3.4
Transmission Control Protocol, Src Port: 44966, Dst Port: 179, Seq: 28, Ack: 66, Len: 0
    Source Port: 44966
    Destination Port: 179
    [Stream index: 0]
    [Conversation completeness: Incomplete, DATA (15)]
    [TCP Segment Len: 0]
    Sequence Number: 28    (relative sequence number)
    Sequence Number (raw): 3683336650
    [Next Sequence Number: 28    (relative sequence number)]
    Acknowledgment Number: 66    (relative ack number)
    Acknowledgment number (raw): 3929346388
    1000 .... = Header Length: 32 bytes (8)
    Flags: 0x010 (ACK)
        000. .... .... = Reserved: Not set
        ...0 .... .... = Nonce: Not set
        .... 0... .... = Congestion Window Reduced (CWR): Not set
        .... .0.. .... = ECN-Echo: Not set
        .... ..0. .... = Urgent: Not set
        .... ...1 .... = Acknowledgment: Set
        .... .... 0... = Push: Not set
        .... .... .0.. = Reset: Not set
        .... .... ..0. = Syn: Not set
        .... .... ...0 = Fin: Not set
        [TCP Flags: ·······A····]
    Window: 502
    [Calculated window size: 64256]
    [Window size scaling factor: 128]
    Checksum: 0x1c29 [unverified]
    [Checksum Status: Unverified]
    Urgent Pointer: 0
    Options: (12 bytes), No-Operation (NOP), No-Operation (NOP), Timestamps
        TCP Option - No-Operation (NOP)
            Kind: No-Operation (1)
        TCP Option - No-Operation (NOP)
            Kind: No-Operation (1)
        TCP Option - Timestamps: TSval 3295155307, TSecr 2983055950
            Kind: Time Stamp Option (8)
            Length: 10
            Timestamp value: 3295155307
            Timestamp echo reply: 2983055950
    [Timestamps]
        [Time since first frame in this TCP stream: 30.193264811 seconds]
        [Time since previous frame in this TCP stream: 0.000154534 seconds]
    [SEQ/ACK analysis]
        [iRTT: 0.000157534 seconds]
        [TCP Analysis Flags]
            [Expert Info (Note/Sequence): ACK to a TCP keep-alive segment]
                [ACK to a TCP keep-alive segment]
                [Severity level: Note]
                [Group: Sequence]

0000  b2 de dd 81 29 4a 0a 39 eb 00 19 db 08 00 45 00   ....)J.9......E.
0010  00 34 1f ac 40 00 40 06 ff 15 0a ff 03 01 0a ff   .4..@.@.........
0020  03 04 af a6 00 b3 db 8b 41 ca ea 35 11 54 80 10   ........A..5.T..
0030  01 f6 1c 29 00 00 01 01 08 0a c4 68 14 6b b1 cd   ...).......h.k..
0040  d2 4e                                             .N

Frame 16: 66 bytes on wire (528 bits), 66 bytes captured (528 bits) on interface R1_net1, id 0
    Interface id: 0 (R1_net1)
        Interface name: R1_net1
    Encapsulation type: Ethernet (1)
    Arrival Time: Dec  1, 2022 16:06:45.080575450 JST
    [Time shift for this packet: 0.000000000 seconds]
    Epoch Time: 1669878405.080575450 seconds
    [Time delta from previous captured frame: 15.158591564 seconds]
    [Time delta from previous displayed frame: 15.158591564 seconds]
    [Time since reference or first frame: 46.591091587 seconds]
    Frame Number: 16
    Frame Length: 66 bytes (528 bits)
    Capture Length: 66 bytes (528 bits)
    [Frame is marked: False]
    [Frame is ignored: False]
    [Protocols in frame: eth:ethertype:ip:tcp]
Ethernet II, Src: b2:de:dd:81:29:4a (b2:de:dd:81:29:4a), Dst: 0a:39:eb:00:19:db (0a:39:eb:00:19:db)
    Destination: 0a:39:eb:00:19:db (0a:39:eb:00:19:db)
        Address: 0a:39:eb:00:19:db (0a:39:eb:00:19:db)
        .... ..1. .... .... .... .... = LG bit: Locally administered address (this is NOT the factory default)
        .... ...0 .... .... .... .... = IG bit: Individual address (unicast)
    Source: b2:de:dd:81:29:4a (b2:de:dd:81:29:4a)
        Address: b2:de:dd:81:29:4a (b2:de:dd:81:29:4a)
        .... ..1. .... .... .... .... = LG bit: Locally administered address (this is NOT the factory default)
        .... ...0 .... .... .... .... = IG bit: Individual address (unicast)
    Type: IPv4 (0x0800)
Internet Protocol Version 4, Src: 10.255.3.4, Dst: 10.255.3.1
    0100 .... = Version: 4
    .... 0101 = Header Length: 20 bytes (5)
    Differentiated Services Field: 0x00 (DSCP: CS0, ECN: Not-ECT)
        0000 00.. = Differentiated Services Codepoint: Default (0)
        .... ..00 = Explicit Congestion Notification: Not ECN-Capable Transport (0)
    Total Length: 52
    Identification: 0xc616 (50710)
    Flags: 0x40, Don't fragment
        0... .... = Reserved bit: Not set
        .1.. .... = Don't fragment: Set
        ..0. .... = More fragments: Not set
    ...0 0000 0000 0000 = Fragment Offset: 0
    Time to Live: 1
        [Expert Info (Note/Sequence): "Time To Live" only 1]
            ["Time To Live" only 1]
            [Severity level: Note]
            [Group: Sequence]
    Protocol: TCP (6)
    Header Checksum: 0x97ab [validation disabled]
    [Header checksum status: Unverified]
    Source Address: 10.255.3.4
    Destination Address: 10.255.3.1
Transmission Control Protocol, Src Port: 179, Dst Port: 44966, Seq: 65, Ack: 28, Len: 0
    Source Port: 179
    Destination Port: 44966
    [Stream index: 0]
    [Conversation completeness: Incomplete, DATA (15)]
    [TCP Segment Len: 0]
    Sequence Number: 65    (relative sequence number)
    Sequence Number (raw): 3929346387
    [Next Sequence Number: 65    (relative sequence number)]
    Acknowledgment Number: 28    (relative ack number)
    Acknowledgment number (raw): 3683336650
    1000 .... = Header Length: 32 bytes (8)
    Flags: 0x010 (ACK)
        000. .... .... = Reserved: Not set
        ...0 .... .... = Nonce: Not set
        .... 0... .... = Congestion Window Reduced (CWR): Not set
        .... .0.. .... = ECN-Echo: Not set
        .... ..0. .... = Urgent: Not set
        .... ...1 .... = Acknowledgment: Set
        .... .... 0... = Push: Not set
        .... .... .0.. = Reset: Not set
        .... .... ..0. = Syn: Not set
        .... .... ...0 = Fin: Not set
        [TCP Flags: ·······A····]
    Window: 509
    [Calculated window size: 65152]
    [Window size scaling factor: 128]
    Checksum: 0x1c29 [unverified]
    [Checksum Status: Unverified]
    Urgent Pointer: 0
    Options: (12 bytes), No-Operation (NOP), No-Operation (NOP), Timestamps
        TCP Option - No-Operation (NOP)
            Kind: No-Operation (1)
        TCP Option - No-Operation (NOP)
            Kind: No-Operation (1)
        TCP Option - Timestamps: TSval 2983101293, TSecr 3295155307
            Kind: Time Stamp Option (8)
            Length: 10
            Timestamp value: 2983101293
            Timestamp echo reply: 3295155307
    [Timestamps]
        [Time since first frame in this TCP stream: 45.351856375 seconds]
        [Time since previous frame in this TCP stream: 15.158591564 seconds]
    [SEQ/ACK analysis]
        [iRTT: 0.000157534 seconds]
        [TCP Analysis Flags]
            [Expert Info (Note/Sequence): TCP keep-alive segment]
                [TCP keep-alive segment]
                [Severity level: Note]
                [Group: Sequence]

0000  0a 39 eb 00 19 db b2 de dd 81 29 4a 08 00 45 00   .9........)J..E.
0010  00 34 c6 16 40 00 01 06 97 ab 0a ff 03 04 0a ff   .4..@...........
0020  03 01 00 b3 af a6 ea 35 11 53 db 8b 41 ca 80 10   .......5.S..A...
0030  01 fd 1c 29 00 00 01 01 08 0a b1 ce 83 6d c4 68   ...).........m.h
0040  14 6b                                             .k

Frame 17: 66 bytes on wire (528 bits), 66 bytes captured (528 bits) on interface R1_net1, id 0
    Interface id: 0 (R1_net1)
        Interface name: R1_net1
    Encapsulation type: Ethernet (1)
    Arrival Time: Dec  1, 2022 16:06:45.080804688 JST
    [Time shift for this packet: 0.000000000 seconds]
    Epoch Time: 1669878405.080804688 seconds
    [Time delta from previous captured frame: 0.000229238 seconds]
    [Time delta from previous displayed frame: 0.000229238 seconds]
    [Time since reference or first frame: 46.591320825 seconds]
    Frame Number: 17
    Frame Length: 66 bytes (528 bits)
    Capture Length: 66 bytes (528 bits)
    [Frame is marked: False]
    [Frame is ignored: False]
    [Protocols in frame: eth:ethertype:ip:tcp]
Ethernet II, Src: 0a:39:eb:00:19:db (0a:39:eb:00:19:db), Dst: b2:de:dd:81:29:4a (b2:de:dd:81:29:4a)
    Destination: b2:de:dd:81:29:4a (b2:de:dd:81:29:4a)
        Address: b2:de:dd:81:29:4a (b2:de:dd:81:29:4a)
        .... ..1. .... .... .... .... = LG bit: Locally administered address (this is NOT the factory default)
        .... ...0 .... .... .... .... = IG bit: Individual address (unicast)
    Source: 0a:39:eb:00:19:db (0a:39:eb:00:19:db)
        Address: 0a:39:eb:00:19:db (0a:39:eb:00:19:db)
        .... ..1. .... .... .... .... = LG bit: Locally administered address (this is NOT the factory default)
        .... ...0 .... .... .... .... = IG bit: Individual address (unicast)
    Type: IPv4 (0x0800)
Internet Protocol Version 4, Src: 10.255.3.1, Dst: 10.255.3.4
    0100 .... = Version: 4
    .... 0101 = Header Length: 20 bytes (5)
    Differentiated Services Field: 0x00 (DSCP: CS0, ECN: Not-ECT)
        0000 00.. = Differentiated Services Codepoint: Default (0)
        .... ..00 = Explicit Congestion Notification: Not ECN-Capable Transport (0)
    Total Length: 52
    Identification: 0x1fad (8109)
    Flags: 0x40, Don't fragment
        0... .... = Reserved bit: Not set
        .1.. .... = Don't fragment: Set
        ..0. .... = More fragments: Not set
    ...0 0000 0000 0000 = Fragment Offset: 0
    Time to Live: 64
    Protocol: TCP (6)
    Header Checksum: 0xff14 [validation disabled]
    [Header checksum status: Unverified]
    Source Address: 10.255.3.1
    Destination Address: 10.255.3.4
Transmission Control Protocol, Src Port: 44966, Dst Port: 179, Seq: 28, Ack: 66, Len: 0
    Source Port: 44966
    Destination Port: 179
    [Stream index: 0]
    [Conversation completeness: Incomplete, DATA (15)]
    [TCP Segment Len: 0]
    Sequence Number: 28    (relative sequence number)
    Sequence Number (raw): 3683336650
    [Next Sequence Number: 28    (relative sequence number)]
    Acknowledgment Number: 66    (relative ack number)
    Acknowledgment number (raw): 3929346388
    1000 .... = Header Length: 32 bytes (8)
    Flags: 0x010 (ACK)
        000. .... .... = Reserved: Not set
        ...0 .... .... = Nonce: Not set
        .... 0... .... = Congestion Window Reduced (CWR): Not set
        .... .0.. .... = ECN-Echo: Not set
        .... ..0. .... = Urgent: Not set
        .... ...1 .... = Acknowledgment: Set
        .... .... 0... = Push: Not set
        .... .... .0.. = Reset: Not set
        .... .... ..0. = Syn: Not set
        .... .... ...0 = Fin: Not set
        [TCP Flags: ·······A····]
    Window: 502
    [Calculated window size: 64256]
    [Window size scaling factor: 128]
    Checksum: 0x1c29 [unverified]
    [Checksum Status: Unverified]
    Urgent Pointer: 0
    Options: (12 bytes), No-Operation (NOP), No-Operation (NOP), Timestamps
        TCP Option - No-Operation (NOP)
            Kind: No-Operation (1)
        TCP Option - No-Operation (NOP)
            Kind: No-Operation (1)
        TCP Option - Timestamps: TSval 3295170466, TSecr 2983055950
            Kind: Time Stamp Option (8)
            Length: 10
            Timestamp value: 3295170466
            Timestamp echo reply: 2983055950
    [Timestamps]
        [Time since first frame in this TCP stream: 45.352085613 seconds]
        [Time since previous frame in this TCP stream: 0.000229238 seconds]
    [SEQ/ACK analysis]
        [iRTT: 0.000157534 seconds]
        [TCP Analysis Flags]
            [Expert Info (Note/Sequence): ACK to a TCP keep-alive segment]
                [ACK to a TCP keep-alive segment]
                [Severity level: Note]
                [Group: Sequence]

0000  b2 de dd 81 29 4a 0a 39 eb 00 19 db 08 00 45 00   ....)J.9......E.
0010  00 34 1f ad 40 00 40 06 ff 14 0a ff 03 01 0a ff   .4..@.@.........
0020  03 04 af a6 00 b3 db 8b 41 ca ea 35 11 54 80 10   ........A..5.T..
0030  01 f6 1c 29 00 00 01 01 08 0a c4 68 4f a2 b1 cd   ...).......hO...
0040  d2 4e                                             .N

